:100000000C9463000C948B000C948B000C941F08D0
:100010000C941F080C941F080C948B000C948B00FC
:100020000C948B000C948B000C948B000C948B0024
:100030000C948B000C948B000C948B000C948B0014
:100040000C94D5070C948B000C94A3070C947D079B
:100050000C948B000C948B000C948B000C948B00F4
:100060000C9497080C948B000000000024002700DB
:100070002A0000000008000201000003040700003D
:1000800000000000000000000000230026002900FE
:1000900000000000250028002B00040404040404D0
:1000A0000404020202020202030303030303010227
:1000B00004081020408001020408102001020408F6
:1000C0001020F709AC1211241FBECFEFD8E0DEBF1D
:1000D000CDBF23E0AEEBB1E001C01D92A03DB20761
:1000E000E1F711E0A0E0B1E0E8ECFBE202C005902E
:1000F0000D92AE3BB107D9F710E0C2E6D0E004C0E4
:100100002197FE010E94A715C136D107C9F70E94A9
:100110001D0B0C94D7150C9400000F931F93CF93D5
:10012000DF93C0919403E5E9F3E0CD3211F0E4E907
:10013000F3E08F0120E030E0A901D801DD918D01CD
:1001400080ED8D0F8A3090F4AAE0B0E00E94281470
:100150002D2FDD0F330B440B550B260F371F481F78
:10016000591F2053310941095109E7CFA4E6B0E0F6
:100170000E942814AB01BC01DF01819190ED980F22
:100180009A30D0F38E3259F511968C91119790EDEB
:10019000980F9A3020F5082E000C990BC0972AE092
:1001A000289F8001299F100D1124012E000C220B85
:1001B000330B400F511F621F731F12968C9190EDED
:1001C000980F9A3060F4082E000C990BC097092EF6
:1001D000000CAA0BBB0B480F591F6A1F7B1FCD32A7
:1001E00039F470956095509541955F4F6F4F7F4FF3
:1001F000CB01BA01DF91CF911F910F9108954F92DA
:100200005F926F927F928F929F92AF92BF92CF92A6
:10021000DF92EF92FF921F93CF93DF93C4E9D3E075
:10022000FE01C12CD12C7601119180ED810F8A3015
:10023000A8F4AAE0B0E0A70196010E942814C12EFC
:10024000110FDD08EE08FF08C60ED71EE81EF91EC6
:1002500080E3C81AD108E108F108E6CFC701B6016A
:1002600024E630E040E050E00E9485159B01AC019F
:1002700060EA76E881E090E00E9461154B015C0144
:100280009E01899190ED980F9A30D0F38E3221F52E
:10029000E901219680E1482E87E2582E612C712CCD
:1002A000A99180ED8A0F8A30B8F40A2E000CBB0B9E
:1002B000D097A30192010E94AD15860E971EA81E2D
:1002C000B91EC301B2012AE030E040E050E00E94D4
:1002D000851529013A01E4CFC701B60124E630E0D3
:1002E00040E050E00E94851560E472E48FE090E009
:1002F0000E9461156B017C01C501B4016D5F7F4FE8
:100300008F4F9F4F26E030E040E050E00E9485157F
:10031000C701B601620F731F841F951FDF91CF9134
:100320001F91FF90EF90DF90CF90BF90AF909F9084
:100330008F907F906F905F904F900895AF92BF9293
:10034000CF92DF92EF92FF920F931F93CF93DF93A1
:100350006C017B018B01040F151FEB015E01AE18D0
:10036000BF08C017D10759F06991D601ED91FC91F2
:100370000190F081E02DC6010995892B79F7C5011F
:10038000DF91CF911F910F91FF90EF90DF90CF9071
:10039000BF90AF900895FC01538D448D252F30E020
:1003A000842F90E0821B930B541710F0CF96089582
:1003B00001970895FC01918D828D981761F0A28DAF
:1003C000AE0FBF2FB11D5D968C91928D9F5F9F7375
:1003D000928F90E008958FEF9FEF0895FC01918D2B
:1003E000828D981731F0828DE80FF11D858D90E098
:1003F00008958FEF9FEF0895FC01918D228D892F35
:1004000090E0805C9F4F821B91098F73992708951C
:1004100081EA92E00E94FC0121E0892B09F420E0AE
:10042000822F0895FC01A48DA80FB92FB11DA35AE6
:10043000BF4F2C91848D90E001968F739927848F04
:10044000A689B7892C93A089B1898C918370806427
:100450008C93938D848D981306C00288F389E02DC8
:1004600080818F7D80830895EF92FF920F931F9379
:10047000CF93DF93EC0181E0888F9B8D8C8D981357
:100480001AC0E889F989808185FF15C09FB7F89463
:10049000EE89FF896083E889F989808183708064AF
:1004A00080839FBF81E090E0DF91CF911F910F91FA
:1004B000FF90EF900895F62E0B8D10E00F5F1F4F09
:1004C0000F731127E02E8C8D8E110CC00FB607FC18
:1004D000FACFE889F989808185FFF5CFCE010E94A6
:1004E0001202F1CFEB8DEC0FFD2FF11DE35AFF4F00
:1004F000F0829FB7F8940B8FEA89FB898081806234
:10050000CFCFCF93DF93EC01888D8823B9F0AA89F0
:10051000BB89E889F9898C9185FD03C0808186FDBE
:100520000DC00FB607FCF7CF8C9185FFF2CF80810D
:1005300085FFEDCFCE010E941202E9CFDF91CF916E
:100540000895833081F028F4813099F08230A9F049
:1005500008958730A9F08830C9F08430B1F48091D3
:1005600080008F7D03C0809180008F778093800012
:10057000089584B58F7784BD089584B58F7DFBCFB2
:100580008091B0008F778093B00008958091B00083
:100590008F7DF9CFCF93DF93282F30E0F901EE580C
:1005A000FF4F8491F901E255FF4FD491F901E656CE
:1005B000FF4FC491CC23A1F081110E94A102EC2F26
:1005C000F0E0EE0FFF1FEA57FF4FA591B491EC91B9
:1005D000ED2381E090E009F480E0DF91CF91089570
:1005E00080E090E0FACF1F93CF93DF93282F30E085
:1005F000F901EE58FF4F8491F901E255FF4FD49174
:10060000F901E656FF4FC491CC23A9F0162F8111B2
:100610000E94A102EC2FF0E0EE0FFF1FE057FF4F0A
:10062000A591B4918FB7F894EC91111108C0D095B1
:10063000DE23DC938FBFDF91CF911F910895DE2BD6
:10064000F8CFCF93DF9390E0FC01E255FF4F249168
:1006500086569F4FFC0184918823D1F090E0880F4B
:10066000991FFC01E859FF4FA591B491FC01E05797
:10067000FF4FC591D49161110EC09FB7F8948C9132
:10068000E22FE0958E238C932881E223E8839FBF9D
:10069000DF91CF9108958FB7F894EC91E22BEC9312
:1006A0008FBFF6CF3FB7F894809183029091840278
:1006B000A0918502B091860226B5A89B05C02F3F68
:1006C00019F00196A11DB11D3FBFBA2FA92F982F78
:1006D0008827BC01CD01620F711D811D911D42E073
:1006E000660F771F881F991F4A95D1F708958F923B
:1006F0009F92AF92BF92CF92DF92EF92FF924B0107
:100700005C010E9452036B017C010E9452036C1930
:100710007D098E099F09683E734081059105A8F304
:1007200021E0821A9108A108B10888EEC80E83E082
:10073000D81EE11CF11C81149104A104B10429F715
:10074000FF90EF90DF90CF90BF90AF909F908F90F1
:1007500008952FB7F89460917F0270918002809184
:100760008102909182022FBF0895209189023091D9
:100770008A022817390771F49091870280918802C4
:10078000981741F0E0918702F0E0E25CFD4F808134
:1007900090E008958FEF9FEF08950895EF92FF92F4
:1007A0000F931F93CF93DF93DC015C96ED90FC9049
:1007B0005D97E114F10479F481E090E013969C9345
:1007C0008E93129790E080E0DF91CF911F910F916F
:1007D000FF90EF9008955196ED91FC9152975096AD
:1007E0008C915097982F90950FB75E962C915E97AD
:1007F000122F127021FD6095F8942081112319F1B8
:10080000282B2083E7012197F1F728E0462F50E0BD
:10081000308160FF1AC0382B3083E7012197F1F750
:10082000BA0175956795215089F7112381F0808170
:10083000892380830FBF5C968D919C910197F1F77E
:1008400081E090E0C1CF2923DCCF3923E5CF90812F
:10085000892BEFCF2091890230918A02281739071E
:1008600071F4809188022091870290E0805C9F4F14
:10087000821B910960E470E00E947115089590E078
:1008800080E008952091890230918A022817390763
:10089000B9F49091870280918802981789F0E091CD
:1008A0008702F0E0E25CFD4F80812091870230E01A
:1008B0002F5F3F4F2F7333272093870290E00895D7
:1008C0008FEF9FEF08952091F401260F3327331FF8
:1008D00021323105ECF420911802FC0190E080E017
:1008E000243069F082E00895A091F4012191AC01D7
:1008F0004C525E4FA40FB52FB11D2C930196861755
:1009000098F38091F401680F6093F40180E00895FA
:1009100081E008958FEF9FEF08958FEF9FEF089587
:100920008091CD0190E09195819591090895CF93A3
:10093000DF93CB01EA01642F0E946304CE01DF91B3
:10094000CF910895CF93DF931F92CDB7DEB7698320
:1009500061E0CE0101960E94630481E090E00F9077
:10096000DF91CF91089590E080E008950F931F9359
:1009700081EB93E00E942A04892B09F456C00E945F
:10098000A9036093B9037093BA038093BB03909358
:10099000BC0381EB93E00E94420497FF1CC00E94BD
:1009A000A9030091B9031091BA032091BB033091C0
:1009B000BC03601B710B820B930B0091B50310916C
:1009C000B6032091B7033091B8036017710782070F
:1009D0009307F8F2CDCF8F9791F664EF71E080E046
:1009E00090E00E94770381EB93E00E942A04892B18
:1009F00009F4BECF81EB93E00E94420420919D0256
:100A000030919E02A9014F5F5F4F50939E02409329
:100A10009D0222543E4FF90180838F3221F781E0FD
:100A200090E09093A00280939F021F910F910895F0
:100A30000E94080281110C94B6040895FC010190F3
:100A40000020E9F73197AF01481B590BBC0181EB3E
:100A500093E00C949E018F929F92AF92BF920F935E
:100A60001F93CF93DF93CDB7DEB7A1970FB6F8945E
:100A7000DEBF0FBECDBF19A2423008F44AE08E019E
:100A80000F5D1F4F842E912CB12CA12CA501940138
:100A90000E948515E62FB901CA01EA30F4F4E05D41
:100AA000D801EE938D01232B242B252B79F790E091
:100AB00080E0109719F0CD010E941E05A1960FB697
:100AC000F894DEBF0FBECDBFDF91CF911F910F9184
:100AD000BF90AF909F908F900895E95CE1CFCF9346
:100AE000DF936AE181EB93E00E94CE03EC0184E2A4
:100AF00091E00E941E058C0F9D1FDF91CF910895FC
:100B0000CF93DF930E941E05EC0184E291E00E94E6
:100B10001E058C0F9D1FDF91CF9108954F925F921C
:100B20006F927F928F929F92AF92BF92CF92DF92FD
:100B3000EF92FF920F931F93CF936B017C01742E62
:100B4000AC019B010E945C15882399F087E291E03B
:100B5000CF911F910F91FF90EF90DF90CF90BF90BA
:100B6000AF909F908F907F906F905F904F900C947C
:100B70001E0546015701E894B7F82FEF3FEF4FE706
:100B80005FE7C501B4010E945C1581110DC02FEF14
:100B90003FEF4FE75FE7C501B4010E94EE12181660
:100BA0001CF48BE291E0D4CF2FEF3FEF4FE75FE4EF
:100BB000C701B6010E94571518161CF48FE291E088
:100BC000C7CF2FEF3FEF4FE75FECC701B6010E94A1
:100BD000EE1287FDF3CF20E030E0A901C701B60196
:100BE0000E94EE1210E000E087FF0AC06DE281EB88
:100BF00093E00E94CE038C01F7FAF094F7F8F0949A
:100C0000C0E060E070E080E09FE37C1641F020E00F
:100C100030E040E251E40E94AF14CF5FF6CFA7016D
:100C200096010E9443142B013C010E9428154B01A0
:100C30005C014AE00E942B057C01E00EF11ECC23F2
:100C4000C1F1C501B4010E94F3129B01AC01C301C3
:100C5000B2010E9442144B015C016EE281EB93E011
:100C60000E94CE03E80EF91EC15018F120E030E0DA
:100C700040E251E4C501B4010E9454132B013C0130
:100C80000E9428154B01B12CA12C4AE0C501B401EA
:100C90000E942B05E80EF91EC501B4010E94F31253
:100CA0009B01AC01C301B2010E9442144B015C01E3
:100CB000DBCFC701CF911F910F91FF90EF90DF9095
:100CC000CF90BF90AF909F908F907F906F905F90EC
:100CD0004F9008950F931F9390E0FC01E255FF4F52
:100CE0006491FC01E656FF4FE491F0E0EE0FFF1F28
:100CF000EA57FF4F8591949100E412E42FE030E031
:100D0000462F0E94B209611571058105910529F0F0
:100D10006F5F7F4F8F4F9F4F9F701F910F9108956F
:100D20001F93CF93DF9385ED8093BC008091D0011A
:100D30009091D101A091D201B091D3010796A11D4C
:100D4000B11D23E0B695A795979587952A95D1F77C
:100D50002091BC0024FD03C01092180252C04091A3
:100D6000D0015091D1016091D2017091D301452BF6
:100D7000462B472B69F30097A105B10541F025E308
:100D80002A95F1F700000197A109B109E1CF8091FF
:100D9000CF01C1E0C093CE01882399F1D091B80072
:100DA0001091BA008091BC008A7B8093BC0060E007
:100DB00082E10E94F30260E083E10E94F30210925C
:100DC0001802C0931A021092190261E082E10E9497
:100DD000F30261E083E10E94F3028091B9008E7F0B
:100DE0008093B9008091B9008D7F8093B90088E429
:100DF0008093B80085E48093BC001093BA00D09330
:100E0000B800DF91CF911F9108950C941A1448E017
:100E100050E063E371E08EEB91E00E94C915892BED
:100E200009F06AC08CE791E00E94800564EF71E0F0
:100E300080E090E00E9477038CE391E00E948005BF
:100E400064EF71E080E090E00E9477038EE491E02F
:100E50000E94800564EF71E080E090E00E947703DB
:100E600088E591E00E94800564EF71E080E090E009
:100E70000E94770381E791E00E941E0564EF71E014
:100E800080E090E00E9477036091990270919A024D
:100E900080919B0290919C0242E00E948E0568EE38
:100EA00073E080E090E00E94770387E791E00E9482
:100EB0001E0564EF71E080E090E00E94770360918E
:100EC000950270919602809197029091980242E06B
:100ED0000E948E0564EF71E080E090E00E9477034D
:100EE0000E946F0564EF71E080E090E00E9477035C
:100EF0008CE791E00C94800508951F920F920FB635
:100F00000F9211242F933F934F935F936F937F938F
:100F10008F939F93AF93BF93EF93FF9381EA92E0F8
:100F20000E941202FF91EF91BF91AF919F918F911B
:100F30007F916F915F914F913F912F910F900FBED5
:100F40000F901F9018951F920F920FB60F921124B9
:100F50002F938F939F93EF93FF93E091B102F091C2
:100F6000B2028081E091B702F091B80282FD1BC00D
:100F700090818091BA028F5F8F732091BB0282179C
:100F800041F0E091BA02F0E0EF55FD4F958F80936C
:100F9000BA02FF91EF919F918F912F910F900FBE09
:100FA0000F901F9018958081F4CF1F920F920FB66B
:100FB0000F9211242F933F938F939F93AF93BF93DF
:100FC00080917F0290918002A0918102B091820273
:100FD00030917E0223E0230F2D3758F50196A11D95
:100FE000B11D20937E0280937F0290938002A09394
:100FF0008102B09382028091830290918402A09139
:101000008502B09186020196A11DB11D80938302D5
:1010100090938402A0938502B0938602BF91AF9112
:101020009F918F913F912F910F900FBE0F901F9026
:10103000189526E8230F0296A11DB11DD2CF1F924D
:101040000F920FB60F9211242F933F934F935F93FC
:101050006F937F938F939F93AF93BF93EF93FF9380
:10106000E0918902F0918A02309749F0A685B78510
:101070008585968D91FF14C09C918923A1F4FF91E1
:10108000EF91BF91AF919F918F917F916F915F9100
:101090004F913F912F910F900FBE0F901F90189579
:1010A0009C91892361F7A389B4899C918589809556
:1010B00089238C93868997890197F1F7608D718DCB
:1010C000A685B785558538E020E0CB010197F1F77B
:1010D000822F90E095958795282F4C91452309F014
:1010E0002068315091F7868D81FD2095809188028E
:1010F00090E001968F73992730918702381799F005
:10110000A0918802B0E0A25CBD4F2C93809388022E
:10111000828D938D0197F1F7A389B4898C9195897C
:10112000892B8C93ACCF868D8160868FF1CF1F92F7
:101130000F920FB60F9211242F933F934F935F930B
:101140006F937F938F939F93AF93BF93EF93FF938F
:101150008091B900887F803609F44AC0F0F5883262
:1011600009F4A5C018F5803109F499C0B8F48823B2
:1011700009F4F5C0883009F492C0FF91EF91BF9156
:10118000AF919F918F917F916F915F914F913F911F
:101190002F910F900FBE0F901F901895883109F472
:1011A00086C0803251F78093170214C0803409F44E
:1011B0009BC040F48033B9F38833F9F6809317026B
:1011C00085ECAEC0803509F483C0883509F494C03D
:1011D000883499F60E949006D0CF883909F48AC0E5
:1011E00038F5883729F050F4883611F0803729F621
:1011F00083E0809318021092160255C0883809F4D3
:1012000079C0803919F0803809F0B7CF8091160283
:10121000803208F06FC0E091160281E08E0F80935B
:1012200016028091BB00F0E0EA50FE4F80833BC085
:10123000803B39F0D0F4803A09F477C0883A09F05D
:101240009CCF84E0809318021092F5011092F40173
:10125000F0E0E0E009958091F40181110FC081E098
:101260008093F4011092D40109C0803C09F4A8CF06
:10127000883C09F4A5CF883B09F07FCFE091F501C8
:1012800081E08E0F8093F501F0E0EC52FE4F8081FB
:101290008093BB009091F5018091F40129C0809169
:1012A0003D028093BB0085EC8093BC0066CF90919B
:1012B0003C0280913B02981758F5E0913C0281E096
:1012C0008E0F80933C02F0E0E55EFD4F8081E9CF18
:1012D000E0913C0281E08E0F80933C028091BB0044
:1012E000F0E0E55EFD4F808390913C0280913B02EF
:1012F0009817C8F285E8D8CFE0913C0281E08E0FC4
:1013000080933C028091BB00F0E0E55EFD4F80835E
:1013100080911A0281115ECF81E08093190284EAE4
:101320008093BC001092180228CF85EC8093BC00FB
:101330001092180280911602803230F4E091160269
:10134000F0E0EA50FE4F10826091160270E086EFE6
:1013500091E0F0E0E0E00995109216020ECF1092B5
:10136000170238CFCF92DF92EF92FF920F931F9325
:10137000E82FF92F05C0015011092109310961F148
:10138000908196239417B9F305C0015011092109E2
:10139000310911F1908196239413F7CFC12CD12CF0
:1013A000E12CF12C0AC08FEFC81AD80AE80AF80A13
:1013B0000C151D052E053F0579F0808186238417C5
:1013C00091F36C2D7D2D8E2D9F2D1F910F91FF90F0
:1013D000EF90DF90CF90089560E070E080E090E0C3
:1013E0001F910F91FF90EF90DF90CF900895109292
:1013F000A4021092A30288EE93E0A0E0B0E08093F4
:10140000A5029093A602A093A702B093A80224E09D
:1014100031E03093A2022093A10225EC30E030931A
:10142000AE022093AD0224EC30E03093B002209362
:10143000AF0220EC30E03093B2022093B10221ECF5
:1014400030E03093B4022093B30222EC30E03093CA
:10145000B6022093B50226EC30E03093B802209318
:10146000B7021092BA021092BB021092BC02109204
:10147000BD021092B4031092B3038093B50390930E
:10148000B603A093B703B093B80386E191E09093BD
:10149000B2038093B1031092C8031092C703109255
:1014A000CA031092C9031092CC031092CB0310927E
:1014B000CE031092CD036091CF036E7F6D7F60935A
:1014C000CF036695617081E0682783E00E94F30294
:1014D00061E083E00E942103E1EBF0E0E491E0931E
:1014E000C103EDE9F0E0E491F0E0EE0FFF1FE057FB
:1014F000FF4F859194919093C3038093C20360E062
:1015000082E00E9421038091CF0381FD04C061E04D
:1015100082E00E94F30222E02093BD03E0EBF0E0C2
:10152000E491E093BE03ECE9F0E0E491F0E0EE0F2B
:10153000FF1FEA57FF4F859194919093C0038093CA
:10154000BF034FEF5FEFBA0140933E0350933F0359
:101550006093400370934103109246031092470337
:1015600010924803109249038FEF99ECAAE9BBE36C
:1015700080934E0390934F03A0935003B093510375
:101580008093560390935703A0935803B093590345
:1015900080935E0390935F03A0936003B093610315
:1015A0008093660390936703A0936803B0936903E5
:1015B00080936E0390936F03A0937003B0937103B5
:1015C0004093760350937703609378037093790385
:1015D0008FEF90E090937F0380937E03409382038C
:1015E00050938303609384037093850340938A032D
:1015F00050938B0360938C0370938D03109292032E
:10160000109293032093A3031092A4031092A503B6
:101610001092A6031092A7031092A8031092A90398
:101620001092AA031092AC031092AB031092AE0377
:101630001092AD03109294030895789484B582605B
:1016400084BD84B5816084BD85B5826085BD85B566
:10165000816085BD80916E00816080936E001092E4
:10166000810080918100826080938100809181005F
:1016700081608093810080918000816080938000F0
:101680008091B10084608093B1008091B00081604E
:101690008093B00080917A00846080937A0080917A
:1016A0007A00826080937A0080917A0081608093D2
:1016B0007A0080917A00806880937A001092C1004D
:1016C00061E089E00E94210360E088E00E9421033C
:1016D00061E08CE00E94210360E08BE00E94210326
:1016E00060E086E00E94210360E085E00E94210323
:1016F00060E08AE00E94210361E08DE00E94210306
:1017000060E080E10E94210361E084E00E94210307
:1017100060E086E00E94F30260E085E00E94F30250
:1017200060E08AE00E94F30260E08DE00E94F30234
:1017300060E080E10E94F30260E084E00E94F30236
:10174000E091B102F091B20282E08083E091AD02BB
:10175000F091AE021082E091AF02F091B0028FECF6
:1017600080831092B902E091B502F091B60286E052
:101770008083E091B302F091B40280818061808324
:10178000E091B302F091B402808188608083E0919F
:10179000B302F091B402808180688083E091B3024B
:1017A000F091B40280818F7D80831092CC031092DF
:1017B000CB031092CA031092C9031092C80310926F
:1017C000C7038DE991E09093CE038093CD03909170
:1017D000BD03963108F047C02DEB30E03093C803CD
:1017E0002093C7032BE931E03093CA032093C90348
:1017F0002CE231E03093CC032093CB03209168009E
:1018000084E0983048F031E09E3008F430E081E028
:1018100001C0880F3A95EAF7822B809368002DE685
:1018200030E0983050F02BE630E09E3030F02CE67F
:1018300030E0963110F030E020E03093C503209383
:10184000C403292F30E0983008F08AC381E001C03A
:10185000880F9A95EAF78093C6038091CD03909103
:10186000CE030197F1F78091CB039091CC03892BA4
:1018700049F1E0918902F0918A0223E0E13BF2070D
:1018800009F1309739F0A389B4899C9185898095B5
:1018900089238C938091CF038E7F8093CF03109206
:1018A00088021092870281EB93E090938A028093E2
:1018B0008902E091C403F091C50380819091C60331
:1018C000892B808364E670E080E090E00E947703DB
:1018D0006AE290E080E00E94050760E281E090E02B
:1018E0000E94050760E082E090E00E94050760E04A
:1018F00083E090E00E94050764E670E080E090E0FD
:101900000E9477038CE391E00E94800564EF71E010
:1019100080E090E00E9477038EE491E00E948005D1
:1019200064EF71E080E090E00E94770388E591E049
:101930000E94800564EF71E080E090E00E947703F0
:101940008EE791E00E941E0564EF71E080E090E078
:101950000E9477030E946F0564EF71E080E090E0E1
:101960000E94770303E010E022E0622E93E2E92E6A
:10197000F12C60E084E00E94F3020E94B60462E36E
:1019800070E080E090E00E94770380919F02909148
:10199000A002019781F40E9407071092A002109202
:1019A0009F0210929E0210929D0264EF71E080E00F
:1019B00090E00E9477030E94A90380E10E94CA027E
:1019C0006C010E94A9034B015C01712C0E94A903C8
:1019D000681979098A099B09683E73408105910558
:1019E00008F4A7C3772009F44BC060914E037091AF
:1019F0004F03809150039091510380905603909033
:101A00005703A0905803B09059036F3FE9EC7E074D
:101A1000EAE98E07EBE39E0709F484C50E94F512FC
:101A200020E034E244E759E40E94AF141B012C018A
:101A3000C501B4010E94F51220E034E244E759E404
:101A40000E94AF144B015C01C201B1010E94281534
:101A500090E080E00E9405076AE070E080E090E09E
:101A60000E947703C501B4010E94281581E090E02F
:101A70000E9405076AE070E080E090E00E94770332
:101A800062E370E080E090E00E94770360E089E02C
:101A90000E94F302C8010197F1F761E089E00E941A
:101AA000F302C7010197F1F760E089E00E94F302B9
:101AB00088E00E946A060E94F51226E933E44BE0B2
:101AC0005DE30E94541320E030E040E05FE30E94B9
:101AD00054130E942115C62F60938B0270938C02C1
:101AE0006AE070E080E090E00E9477036C2F82E073
:101AF00090E00E94050762E370E080E090E00E94C1
:101B0000770360E08CE00E94F302C8010197F1F7CF
:101B100061E08CE00E94F302C7010197F1F760E0F9
:101B20008CE00E94F3028BE00E946A060E94F5128C
:101B300026E933E44BE05DE30E94541320E030E0FB
:101B400040E05FE30E9454130E94211583E090E07F
:101B50000E94050762E370E080E090E00E94770356
:101B600090E080E00E941214682F70E090E080E026
:101B70000E94F3126093990270939A0280939B02E1
:101B800090939C0281E090E00E941214682F70E014
:101B900090E080E00E94F3126093950270939602A9
:101BA000809397029093980282E090E00E94121432
:101BB00090E0909394028093930283E090E00E94DF
:101BC000121490E0909392028093910264E670E088
:101BD00080E090E00E947703CA94CD28E1F561E0AF
:101BE00084E00E94F30268EC70E080E090E00E94E4
:101BF000770360E084E00E94F30268EC70E080E02C
:101C000090E00E94770361E084E00E94F30268ECB8
:101C100070E080E090E00E94770360E084E00E9442
:101C2000F30268EC70E080E090E00E94770361E0EE
:101C300084E00E94F30268EC70E080E090E00E9493
:101C4000770360E084E00E94F30268EC70E080E0DB
:101C500090E00E94770386E00E94CA0220918F02E2
:101C600030919002232B09F066C4019709F063C4F8
:101C70008CE791E00E94800564EF71E080E090E0E5
:101C80000E9477038CE391E00E94800564EF71E08D
:101C900080E090E00E9477038EE491E00E9480054E
:101CA00064EF71E080E090E00E94770388E591E0C6
:101CB0000E94800564EF71E080E090E00E9477036D
:101CC00087E991E00E94800564EF71E080E090E098
:101CD0000E94770381E791E00E941E0564EF71E0A6
:101CE00080E090E00E9477036091990270919A02DF
:101CF00080919B0290919C0242E00E948E0564EFCD
:101D000071E080E090E00E94770387E791E00E9415
:101D10001E0564EF71E080E090E00E94770360911F
:101D2000950270919602809197029091980242E0FC
:101D30000E948E0564EF71E080E090E00E947703DE
:101D40000E946F0564EF71E080E090E00E947703ED
:101D50008CE791E00E94800580918F029091900223
:101D600001969093900280938F0285E00E94CA02B0
:101D700020918D0230918E02232B09F0E1C301974F
:101D800009F0DEC38CE791E00E94800564EF71E00A
:101D900080E090E00E9477038CE391E00E94800550
:101DA00064EF71E080E090E00E9477038EE491E0C0
:101DB0000E94800564EF71E080E090E00E9477036C
:101DC00088E591E00E94800564EF71E080E090E09A
:101DD0000E94770381EA91E00E94800564EF71E040
:101DE00080E090E00E94770381E791E00E941E0569
:101DF00068EE73E080E090E00E94770360919902C2
:101E000070919A0280919B0290919C0242E00E9404
:101E10008E0564EF71E080E090E00E94770387E731
:101E200091E00E941E0564EF71E080E090E00E9466
:101E3000770360919502709196028091970290913C
:101E4000980242E00E948E0564EF71E080E090E02D
:101E50000E9477030E946F0564EF71E080E090E0DC
:101E60000E9477038CE791E00E94800580918D02AB
:101E700090918E02019690938E0280938D028091B4
:101E8000930290919402C29724F461E084E00E944E
:101E9000F3028AE00E94CA02019771F461E08DE0CA
:101EA0000E94F3026AEF70E080E090E00E94770306
:101EB00060E08DE00E94F302809191029091920285
:101EC0004F9744F161E084E00E94F30268EC70E017
:101ED00080E090E00E94770360E084E00E94F302DB
:101EE00068EC70E080E090E00E94770361E084E0BD
:101EF0000E94F30268EC70E080E090E00E947703BB
:101F000060E084E00E94F30268EC70E080E090E022
:101F10000E9477030E94B60462E370E080E090E0E4
:101F20000E94770380919F029091A002019781F413
:101F30000E9407071092A00210929F0210929E0228
:101F400010929D0264EF71E080E090E00E947703C0
:101F50000E940802882309F40CCD0E94B60406CD25
:101F60009E3040F42850310981E001C0880F2A9545
:101F7000EAF771CC2E503109F7CFCA3209F405C106
:101F8000CC3209F0BBC2809192038C2780939203DC
:101F9000FCC09091A403F0E0EC56FC4F1082D0916D
:101FA0009303DD2309F46AC120919403822F022E4A
:101FB000000C990B3FEB320F363008F0EBC0C7979F
:101FC0008295807F90919503292F092E000C330B69
:101FD0004FEB490F463008F0E5C027533109820F17
:101FE00090919203891340C1D091A603DD2309F497
:101FF000CFC08091AB039091AC0301969093AC035A
:102000008093AB038091860390918703A09188030E
:10201000B09189038093820390938303A0938403F8
:10202000B093850380918E0390918F03A0919003CC
:10203000B091910380938A0390938B03A0938C03B8
:10204000B0938D038091A303882309F4B4C0813039
:1020500009F060C08091420390914303A091440332
:10206000B091450380933E0390933F03A0934003B8
:10207000B093410380914A0390914B03A0914C038C
:10208000B0914D038093460390934703A093480378
:10209000B09349038091520390915303A09154034C
:1020A000B091550380934E0390934F03A093500338
:1020B000B093510380915A0390915B03A0915C030C
:1020C000B0915D038093560390935703A0935803F8
:1020D000B093590380916A0390916B03A0916C03B4
:1020E000B0916D038093660390936703A093680398
:1020F000B09369038091720390917303A09174036C
:10210000B091750380936E0390936F03A093700357
:10211000B09371038091A4038F5F8093A403109206
:10212000A50381E0CA3209F080E080939303D111C6
:102130007D2E81EA92E00E94FC01892B09F446CCB5
:1021400081EA92E00E94DA01C82F8091A703909162
:10215000A803A091A903B091AA030196A11DB11DE6
:102160008093A7039093A803A093A903B093AA0315
:10217000C43209F4B6C1E091A503C5320CF0FDCE1E
:10218000CA3019F0CD3009F0B9C1EF3008F401CFF1
:10219000D0E0C0CF2156263018F48755910910CFD2
:1021A000C0970ECF9156963018F42755310917CFA6
:1021B0002053310914CF8091620390916303A09161
:1021C0006403B091650380935E0390935F03A093D3
:1021D0006003B09361038091420390914303A09107
:1021E0004403B091450380933E0390933F03A09333
:1021F0004003B09341038091520390915303A09107
:102200005403B091550380934E0390934F03A093D2
:102210005003B093510380915A0390915B03A091B6
:102220005C03B0915D038093560390935703A09392
:102230005803B09359038091800390918103909348
:102240007F0380937E0380917A0390917B03A0911A
:102250007C03B0917D038093760390937703A093E2
:102260007803B093790356CF8091AD039091AE037C
:1022700001969093AE038093AD038ACF91111CC059
:1022800044E953E0ABE8B1E0CA01FC012191CF0180
:10229000222309F45AC13D912317B9F3A1E9B1E012
:1022A000FA018191AF01882309F453C19D918917E7
:1022B000B9F36092A3032ECFE091A303E23009F4B7
:1022C00067CF80919403882309F462CF20E2E29FD4
:1022D000F0011124E92B3197E932F10508F01ACF0A
:1022E000EC58FE4E0C94A715BA11D511EA1105123F
:1022F00010124A1251125B1266128A108A108A104A
:102300008A108A108A108A108A108A108A108A10FD
:102310008A108A108A108A108A108A108A108A10ED
:102320008A108A108A108A10BA11CF11D511EA11B9
:10233000051210122B1236129D11E4E9F3E020E091
:1023400030E0A901519080ED850D8A3008F099C0E8
:10235000AAE0B0E00E942814252D550C330B440B45
:10236000550B260F371F481F591F205331094109AC
:102370005109E8CF0E948D0060934203709343039C
:1023800080934403909345030E94A90360938603BE
:10239000709387038093880390938903BBCE91E069
:1023A000813409F47BC090E079C00E94FF00609303
:1023B00052037093530380935403909355030E94E8
:1023C000A90360938E0370938F038093900390937F
:1023D0009103A0CE833509F0DBCE8091520390911A
:1023E0005303A0915403B0915503B095A0959095D7
:1023F00081959F4FAF4FBF4F8093520390935303EC
:10240000A0935403B093550385CE0E94FF006093C0
:102410005A0370935B0380935C0390935D037ACEC1
:10242000873509F0B5CE80915A0390915B03A09156
:102430005C03B0915D03B095A095909581959F4FF9
:10244000AF4FBF4F80935A0390935B03A0935C03FD
:10245000B0935D035FCE0E948D0060936A0370931A
:102460006B0380936C0390936D0354CE0E948D0098
:102470006093720370937303809374039093750356
:1024800049CE20934A0330934B0340934C0350931F
:102490004D0340CE91E081330CF485CF9093A60399
:1024A00039CE84E993E00E94C81299279093810362
:1024B000809380032FCE0E948D0060937A037093E7
:1024C0007B0380937C0390937D0324CE0E948D0038
:1024D0006093620370936303809364039093650336
:1024E00019CE1092A5031092A40310929203609249
:1024F000A303109293031092A6031BCEEE3040F478
:1025000081E08E0F8093A503F0E0EC56FC4FC08372
:102510008091930381110DCE80919203C827C093BF
:10252000920307CE212C312C8AE7482E84E4582EC2
:102530005201410189CA1092900210928F0215CC6B
:1025400010928E0210928D029ACC21E02093A30368
:10255000E1CD1092A303DECD86E191E09093B2032A
:102560008093B1038091890290918A02815B9340AC
:1025700071F4E091C403F091C50390818091C6038A
:1025800080958923808310928A021092890208958F
:10259000FC0188279927E89421912032E9F329301A
:1025A00010F02E30C8F32B3241F02D3239F46894FC
:1025B00004C00E94E612820F911D219120532A30FF
:1025C000C0F31EF4909581959F4F08957AE0979FF0
:1025D000902D879F802D910D112408950E94301316
:1025E00008F481E00895E89409C097FB3EF49095C3
:1025F0008095709561957F4F8F4F9F4F9923A9F0DC
:10260000F92F96E9BB279395F6958795779567956A
:10261000B795F111F8CFFAF4BB0F11F460FF1BC0AE
:102620006F5F7F4F8F4F9F4F16C0882311F096E941
:1026300011C0772321F09EE8872F762F05C06623EF
:1026400071F096E8862F70E060E02AF09A95660FA8
:10265000771F881FDAF7880F9695879597F9089561
:10266000990F0008550FAA0BE0E8FEEF16161706A3
:10267000E807F907C0F012161306E407F50798F00B
:10268000621B730B840B950B39F40A2661F0232B24
:10269000242B252B21F408950A2609F4A140A695A0
:1026A0008FEF811D811D08950E9467130C94D8132C
:1026B0000E94CA1338F00E94D11320F0952311F024
:1026C0000C94C1130C94C71311240C940C140E9485
:1026D000E91370F3959FC1F3950F50E0551F629F6A
:1026E000F001729FBB27F00DB11D639FAA27F00D6B
:1026F000B11DAA1F649F6627B00DA11D661F829F92
:102700002227B00DA11D621F739FB00DA11D621F76
:10271000839FA00D611D221F749F3327A00D611D93
:10272000231F849F600D211D822F762F6A2F112475
:102730009F5750409AF0F1F088234AF0EE0FFF1FA8
:10274000BB1F661F771F881F91505040A9F79E3FFF
:10275000510580F00C94C1130C940C145F3FE4F30A
:10276000983ED4F3869577956795B795F795E79555
:102770009F5FC1F7FE2B880F911D9695879597F95E
:10278000089597F99F6780E870E060E008959FEFF3
:1027900080EC089500240A941616170618060906F8
:1027A000089500240A9412161306140605060895C7
:1027B000092E0394000C11F4882352F0BB0F40F44F
:1027C000BF2B11F460FF04C06F5F7F4F8F4F9F4F8F
:1027D000089557FD9058440F551F59F05F3F71F011
:1027E0004795880F97FB991F61F09F3F79F0879578
:1027F0000895121613061406551FF2CF4695F1DF01
:1028000008C0161617061806991FF1CF8695710590
:10281000610508940895E894BB2766277727CB01C4
:1028200097F90895F999FECF92BD81BDF89A99273D
:1028300080B50895262FF999FECF1FBA92BD81BDAC
:1028400020BD0FB6F894FA9AF99A0FBE0196089532
:102850000E943314A59F900DB49F900DA49F800DEE
:10286000911D11240895A29FB001B39FC001A39FA1
:10287000700D811D1124911DB29F700D811D1124B9
:10288000911D08955058BB27AA270E945A140C94F2
:10289000D8130E94CA1338F00E94D11320F039F4E3
:1028A0009F3F19F426F40C94C7130EF4E095E7FB50
:1028B0000C94C113E92F0E94E91358F3BA17620769
:1028C00073078407950720F079F4A6F50C940B1490
:1028D0000EF4E0950B2EBA2FA02D0B01B90190013B
:1028E0000C01CA01A0011124FF27591B99F0593F7F
:1028F00050F4503E68F11A16F040A22F232F342FC7
:102900004427585FF3CF469537952795A795F04014
:102910005395C9F77EF41F16BA0B620B730B840B29
:10292000BAF09150A1F0FF0FBB1F661F771F881FE1
:10293000C2F70EC0BA0F621F731F841F48F4879539
:1029400077956795B795F7959E3F08F0B0CF93952B
:10295000880F08F09927EE0F9795879508950E94A4
:10296000C3140C94D8130E94D11358F00E94CA13B8
:1029700040F029F45F3F29F00C94C11351110C94DD
:102980000C140C94C7130E94E91368F39923B1F354
:10299000552391F3951B550BBB27AA276217730785
:1029A000840738F09F5F5F4F220F331F441FAA1F19
:1029B000A9F335D00E2E3AF0E0E832D091505040D5
:1029C000E695001CCAF72BD0FE2F29D0660F771F83
:1029D000881FBB1F261737074807AB07B0E809F069
:1029E000BB0B802DBF01FF2793585F4F3AF09E3FEE
:1029F000510578F00C94C1130C940C145F3FE4F370
:102A0000983ED4F3869577956795B795F7959F5F30
:102A1000C9F7880F911D9695879597F90895E1E07C
:102A2000660F771F881FBB1F621773078407BA07DB
:102A300020F0621B730B840BBA0BEE1F88F7E09536
:102A400008950E9428156894B1110C940C140895EF
:102A50000E94F11388F09F5798F0B92F9927B7512A
:102A6000B0F0E1F0660F771F881F991F1AF0BA9532
:102A7000C9F714C0B13091F00E940B14B1E0089571
:102A80000C940B14672F782F8827B85F39F0B93F63
:102A9000CCF3869577956795B395D9F73EF49095E5
:102AA0008095709561957F4F8F4F9F4F08950E943D
:102AB000301308F48FEF08950E943013880B990BA0
:102AC0000895DB018F939F930E942814BF91AF91CB
:102AD000A29F800D911DA39F900DB29F900D112478
:102AE000089597FB072E16F4009407D077FD09D0C0
:102AF0000E94B51507FC05D03EF4909581959F4F37
:102B00000895709561957F4F0895A1E21A2EAA1B32
:102B1000BB1BFD010DC0AA1FBB1FEE1FFF1FA2178D
:102B2000B307E407F50720F0A21BB30BE40BF50B8A
:102B3000661F771F881F991F1A9469F76095709513
:102B4000809590959B01AC01BD01CF010895EE0FDA
:102B5000FF1F0590F491E02D0994B7FF0C94281401
:102B60000E942814821B930B0895AA1BBB1B51E1E2
:102B700007C0AA1FBB1FA617B70710F0A61BB70BED
:102B8000881F991F5A95A9F780959095BC01CD0192
:102B90000895FB01DC014150504030F08D910190CF
:102BA000801919F40020B9F7881B990B089510E0DB
:102BB000C2E6D0E004C0FE010E94A7152196C336EC
:082BC000D107C9F7F894FFCF1B
:102BC8000000000034029E01CB018102FC01DA0101
:102BD800EE0100000000CE039E01B304CD032A04D9
:102BE8004204B5030D0A006E616E00696E66006FDF
:102BF8007666004C6F636174696F6E0041542B43B5
:102C08004E4D493D322C322C302C302C3000415462
:102C18002B434D47463D310041542B434D47533DCF
:102C2800222B323535363537353135353537220DA6
:102C3800004C61743A20004C6F6E673A200053795B
:102C48007374656D207265616479004750524D4315
:102C5800004750474741004920616D206C6F7374ED
:102C6800004920616D2061747461636B65642C2078
:0E2C7800706C6561736520617373697374001D
:00000001FF
